:100000000C942A000C9447000C9447000C94470071
:100010000C9447000C9447000C9447000C94470044
:100020000C9447000C9447000C9447000C94470034
:100030000C9447000C9447000C9447000C94470024
:100040000C9447000C9447000C9447000C94470014
:100050000C94470011241FBECFE5D8E0DEBFCDBF12
:1000600010E0A0E6B0E0E6E3F6E002C005900D92F5
:10007000A036B107D9F710E0A0E6B0E001C01D92AC
:10008000A136B107E1F70E9430010C9419030C94DA
:1000900000008FB581628FBD8EB58B608EBDA49A36
:1000A000A59AAC9AAD988C9A0895282F392F39BD0E
:1000B00028BD0895AC9AAD980895AC98AD9A08956E
:1000C0000E94FA00809160000E94E300809160002D
:1000D0008C5E0E94CC0008950E94FF008091600019
:1000E0000E94E300809160008C5E0E94CC00089525
:1000F0000E94FA0080E00E94E30080E00E94CC00B1
:1001000008950E94FA0080E00E94E3008091600060
:100110000E94CC0008950E94FA00809160008451F2
:100120000E94E30080E00E94CC0008950E94FF003E
:1001300080E00E94E300809160000E94CC0008955E
:100140000E94FF008091600084510E94E30080E0E3
:100150000E94CC0008950E940401809160000E94DA
:10016000E300809160000E94CC0008950E94090184
:10017000809160000E94E300809160000E94CC00AA
:100180000895A09AA19AA29AA39AA89AA998AA981F
:10019000AB9ABB9A8F9A08958CBF83B7877F83BF32
:1001A00083B7806483BF83B78B7F83BF83B782604D
:1001B00083BF83B7816083BF83B78F7E83BF83B7DD
:1001C000806283BF089583BD85B5877F85BD85B572
:1001D000806485BD85B5846085BD85B58D7F85BD11
:1001E00085B58E7F85BD85B58F7E85BD85B58062E1
:1001F00085BD0895A89AA998AA9AAB980895A89839
:10020000A99AAA98AB9A0895A898A99AAA9AAB987D
:100210000895A89AA998AA98AB9A08958FB5826A6A
:100220008FBD8EB58B618EBD87E893E197BD86BD8E
:1002300081B3806381BB0895282F392F3BBD2ABD30
:10024000089522E380E090E0FC013197F1F7FC0192
:100250003197F1F7FC013197F1F72150A9F7089593
:1002600080E895E20E94CA020E94C1000E940E012D
:100270008FEF8ABB8CE391E09BBD8ABD109260003A
:100280000F2EF0E4EF2EF1E0FF2EF02D0CE311E045
:10029000DD24D394D2E0CC24CA940F2EFDE08F2E1F
:1002A000F2E09F2EF02D0F2EF4E66F2EF02D0F2E84
:1002B000F6E9AF2EF02D0F2EF8ECBF2EF02D0F2EFD
:1002C000F2E37F2EF02D0E94C602C82F853511F46F
:1002D000DBBA11C0853711F41BBA0DC0893411F493
:1002E000DBBB09C0893611F41BBA05C0813519F48E
:1002F0000E9460002DC0C13719F40E946C0028C014
:10030000C53619F40E948B0023C0C53419F40E942D
:1003100081001EC0C23719F40E94A00019C0C23566
:1003200019F40E94960014C0C73719F40E94B60051
:100330000FC0C73519F40E94AB000AC0C13619F4CA
:100340000E94780005C0C43519F4C092600017C03F
:10035000C43719F4B092600012C0C93519F4A092E4
:1003600060000DC0C93719F46092600008C0CF3436
:1003700031F487E192E00E941C0184012CC0CF3649
:1003800039F484E690E00E941C0104E610E023C0EA
:10039000C03539F489EA91E00E941C0109EA11E0B4
:1003A0001AC0C03739F488EC90E00E941C0108ECB8
:1003B00010E011C0C13439F48CE391E00E941C01BB
:1003C0000CE311E008C0C43431F40B5F1F4FC801C7
:1003D0000E941C0161C0C43631F405501040C801B0
:1003E0000E941C0159C0C63431F4065F1F4FC8017A
:1003F0000E941C0151C0C63631F40A501040C80199
:100400000E941C0149C0C73431F40C5E1F4FC80163
:100410000E941C0141C0C73631F404511040C8018C
:100420000E941C0139C0C83431F4025E1F4FC8015C
:100430000E941C0131C0C83631F40E511040C80171
:100440000E941C0129C0CA3431F4085D1F4FC80145
:100450000E941C0121C0CA3631F408521040C80164
:100460000E941C0119C0CB3431F40E5C1F4FC8012F
:100470000E941C0111C0CB3631F402531040C80158
:100480000E941C0109C0CC3439F40E945A0080ED4E
:1004900097E00E94550024C0CC3639F40E945D00DC
:1004A00080ED97E00E9455001BC0C63529F480E01E
:1004B00090E00E94550014C0C33591F41092600082
:1004C00086E990E00E941C01DBBB8FEF99E6A8E172
:1004D00081509040A040E1F700C000001BBA27C047
:1004E000C33729F57092600082EC91E00E941C01F4
:1004F000DBBB8FEF99E6A8E181509040A040E1F787
:1005000000C000001BBA8FEF99E6A8E1815090402F
:10051000A040E1F700C00000DBBB8FEF99E6A8E147
:1005200081509040A040E1F700C000001BBAE016E7
:10053000F10614F4DBBB01C0D998C23481F4AAE0FF
:10054000B0E0EA0EFB1EDBBB8FEF95EAAEE0815018
:100550009040A040E1F700C000001BBAB4CEC23604
:1005600009F0B1CEA6EFBFEFEA0EFB1EDBBB8FEFAB
:1005700095EAAEE081509040A040E1F700C0000055
:100580001BBAA1CE5D9BFECF8CB908955F9BFECFB9
:100590008CB108959C0140E050E060E472E48FE08B
:1005A00090E00E94DC022150304030BD29B988E142
:1005B0008AB98EE880BD089597FB092E05260ED0D6
:1005C00057FD04D014D00AD0001C38F45095409543
:1005D000309521953F4F4F4F5F4F0895F6F7909517
:1005E0008095709561957F4F8F4F9F4F0895A1E241
:1005F0001A2EAA1BBB1BFD010DC0AA1FBB1FEE1F9D
:10060000FF1FA217B307E407F50720F0A21BB30BE7
:10061000E40BF50B661F771F881F991F1A9469F763
:1006200060957095809590959B01AC01BD01CF01BF
:060630000895F894FFCFCD
:00000001FF
